:100000000C94B1000C94CE000C94CE000C94CE0055
:100010000C94CE000C94CE000C94CE000C94CE0028
:100020000C94CE000C94CE000C94CE000C94CE0018
:100030000C94CE000C94CE000C94CE000C94CE0008
:100040000C94CE000C94CE000C94CE000C94CE00F8
:100050000C94CE000C94CE000C94CE000C94CE00E8
:100060000C94CE000C94CE0000407A10F35A00A0FD
:10007000724E18090010A5D4E80000E87648170071
:1000800000E40B54020000CA9A3B000000E1F505B1
:10009000000080969800000040420F000000A086FB
:1000A00001000000102700000000E803000000002D
:1000B0006400000000000A000000000001000000D1
:1000C00000002C76D888DC674F0823DFC1DFAE59EB
:1000D000E1B1B796E5E3E453C63AE651997696E87E
:1000E000E6C28426EB898C9B62ED407C6FFCEFBC02
:1000F0009C9F40F2BAA56FA5F490055A2AF75C932D
:100100006B6CF9676DC11BFCE0E40D47FEF520E662
:10011000B500D0ED902E0300943577050080841E45
:10012000080000204E0A000000C80C333333330FA0
:10013000986E12831141EF8D2114893BE65516CF3D
:10014000FEE6DB18D1844B381BF77C1D901DA4BB49
:10015000E424203284725E228100C9F124ECA1E5FE
:100160003D2711241FBECFEFD8E0DEBFCDBF11E089
:10017000A0E0B1E0E8E8F1E102C005900D92A831FD
:10018000B107D9F721E0A8E1B1E001C01D92AE337B
:10019000B207E1F70E946B040C94C2080C940000B3
:1001A00080FF04C095B1946095B903C095B19B7F61
:1001B00095B981FF04C095B1986095B903C095B118
:1001C000977F95B982FF04C095B1906195B903C03E
:1001D00095B19F7E95B983FF04C085B1806285B9D2
:1001E000089585B18F7D85B9089595B19E7F95B9A4
:1001F0000E94D00085B1826085B98FE79EE30197A8
:10020000F1F700C0000085B18D7F85B9089584B1F4
:100210008F6384B915B880E00E94D0002FEF86E785
:1002200091E0215080409040E1F700C0000083E061
:100230000E94F5008FE19EE40197F1F700C00000F5
:1002400083E00E94F5008FED9BEA0197F1F700C073
:10025000000083E00E94F50082E00E94F50082E049
:100260000E94F50088E00E94F50080E00E94F50001
:100270008CE00E94F50080E00E94F50086E00E947C
:10028000F50080E00E94F50081E00E94F5000895ED
:10029000CF93C82FCF7095B1916095B982958F702B
:1002A0000E94D00085B1826085B98FE79EE30197F7
:1002B000F1F700C0000085B18D7F85B98C2F0E94B9
:1002C000D00085B1826085B98FE79EE30197F1F791
:1002D00000C0000085B18D7F85B9CF9108950F933F
:1002E0001F93CF93DF938C01C0E0D0E003C00E9446
:1002F00048012196F801EC0FFD1F80818111F7CF95
:10030000DF91CF911F910F910895CF93613059F4F0
:100310008158C82FCF7082958F700E94F5008C2F66
:100320000E94F5000CC0623051F48154C82FCF7088
:1003300082958F700E94F5008C2F0E94F500CF915E
:10034000089587B18F7C87B988B18F7C88B908956B
:100350000F931F93CF938B019C01C42F443079F0EE
:1003600018F4413031F023C0403191F04034C9F0ED
:100370001EC0E9EBF0E080818C7F80831EC0E9EB3A
:10038000F0E080818D7F808380818160808315C0D3
:10039000E9EBF0E080818E7F8083808182608083C2
:1003A0000CC0E9EBF0E080818360808306C0E9EB5C
:1003B000F0E080818C7F8083C1E060E074E284EFB4
:1003C00090E0A90198010E94E205CA01B9016051BB
:1003D0007109810991094C2F50E09A01220F331FB6
:1003E000032E000C440B550B0E94E2052093B8002D
:1003F000CF911F910F9108958091B900887F089542
:100400008093BB0084E88093BC008091BC0088236B
:10041000E4F70E94FC01089584EA8093BC00809177
:10042000BC008823E4F70E94FC01883009F481E0D5
:10043000089584E98093BC008091BC0084FDFCCFCA
:100440000895CF93882311F084EC01C084E8809351
:10045000BC008091BC008823E4F70E94FC01C82FF7
:10046000803511F0883519F48091BB0003C00E94DB
:1004700019028C2FCF910895CF93C82F85E08093D8
:10048000BC000E940C02813011F00E9419028C2FD6
:10049000880F0E9400020E94FC01883111F00E9426
:1004A0001902CF910895CF93C82F85E08093BC00A7
:1004B0000E940C02813011F00E9419028C2F90E0F2
:1004C000880F991F81600E9400020E94FC01803405
:1004D00011F00E941902CF9108958AB182608AB901
:1004E0008AB18E7F8AB91092C00088E98093C100DA
:1004F00086E08093C20087E690E09093C5008093E9
:10050000C40008959091C00095FFFCCF8093C60071
:1005100008950F931F93CF93DF938C01C0E0D0E039
:1005200003C00E9482022196F801EC0FFD1F80811A
:100530008111F7CFDF91CF911F910F910895F8941A
:100540000E94A10141E060EA76E881E090E00E942B
:10055000A8010E946D0278940895EF92FF920F9384
:100560001F93CF93DF9300D000D000D0CDB7DEB77C
:100570002FEF86E791E0215080409040E1F700C0E6
:10058000000088E30E943C0281EE0E94000288E0A5
:100590000E94000280E00E9400020E94190288E38B
:1005A0000E943C028CEA0E94000283E30E94000247
:1005B00080E00E9400020E9419022FEF87EE93E074
:1005C000215080409040E1F700C0000088E30E9485
:1005D000530210E01CC0153068F4E12EF12C81E0CC
:1005E0000E942102E1E0F0E0EC0FFD1FEE0DFF1D87
:1005F00080830CC0E12EF12C80E00E942102E1E01A
:10060000F0E0EC0FFD1FEE0DFF1D80831F5F163025
:1006100010F30E9419021C81612F6F70862F90E0E9
:10062000A0E0B0E0BC01552744278D8190E0A0E018
:10063000B0E0BA2FA92F982F8827842B952BA62BB3
:10064000B72B2E81BC01CD01622B0E94E70420E074
:1006500030E048E453E40E94750520E030E040E8D3
:1006600055E30E94750520E030E048E452E40E9422
:100670007A0460931E0170931F0180932001909370
:1006800021016A81862F90E0A0E0B0E0AC01BD01BD
:10069000032E3CE0440F551F661F771F3A95D1F794
:1006A000302D8B8190E0A0E0B0E0880F991FAA1F49
:1006B000BB1F880F991FAA1FBB1F880F991FAA1F56
:1006C000BB1F880F991FAA1FBB1F842B952BA62B1E
:1006D000B72B12951F70BC01CD01612B0E94E7045E
:1006E00020E030E048EC52E40E94750520E030E064
:1006F00040E855E30E94750560931A0170931B0151
:1007000080931C0190931D0180E40E943C0281E0D3
:100710000E9400020E94190280E40E94530280E0BD
:100720000E942102809318010E94190280E40E9415
:100730003C0282E00E9400020E94190280E40E94B2
:10074000530280E00E942102809319010E94190245
:1007500062E081E00E94850180E091E00E946F01EB
:1007600062E081E00E948501809118014AE066E222
:1007700071E090E00E94240686E291E00E946F0101
:1007800062E084E00E94850180E091E00E946F01B8
:1007900062E084E00E948501809119014AE066E2EE
:1007A00071E090E00E94240686E291E00E946F01D1
:1007B00080E191E00E946F0160911E0170911F0124
:1007C000809120019091210106E211E022E045E0B4
:1007D0000E94040662E089E00E94850184E091E0C5
:1007E0000E946F0162E089E00E948501C8010E94B9
:1007F0006F0160911A0170911B0180911C01909111
:100800001D0122E045E00E94040661E087E00E94AD
:1008100085018BE091E00E946F0161E087E00E941A
:100820008501C8010E946F0160911E0170911F0136
:10083000809120019091210122E045E00E94040670
:10084000C8010E9489028CE20E94820260911A0112
:1008500070911B0180911C0190911D0122E045E0E7
:100860000E940406C8010E9489028CE20E94820252
:10087000809118014AE0B80190E00E942406C80166
:100880000E9489028CE20E948202809119014AE052
:10089000B80190E00E942406C8010E9489028CE2FF
:1008A0000E9482028AE00E9482022FEF83ED90E391
:1008B000215080409040E1F700C0000026960FB61E
:1008C000F894DEBF0FBECDBFDF91CF911F910F9186
:1008D000FF90EF9008950E949F020E94070161E03F
:1008E00081E00E94850182E191E00E946F010E94F7
:1008F000AD02FDCF5058BB27AA270E9492040C944A
:100900003B050E942D0538F00E94340520F039F493
:100910009F3F19F426F40C942A050EF4E095E7FBAA
:100920000C942405E92F0E944C0558F3BA1762076E
:1009300073078407950720F079F4A6F50C946E05EB
:100940000EF4E0950B2EBA2FA02D0B01B9019001EA
:100950000C01CA01A0011124FF27591B99F0593F2E
:1009600050F4503E68F11A16F040A22F232F342F76
:100970004427585FF3CF469537952795A795F040C4
:100980005395C9F77EF41F16BA0B620B730B840BD9
:10099000BAF09150A1F0FF0FBB1F661F771F881F91
:1009A000C2F70EC0BA0F621F731F841F48F48795E9
:1009B00077956795B795F7959E3F08F0B0CF9395DB
:1009C000880F08F09927EE0F979587950895E8947A
:1009D00009C097FB3EF490958095709561957F4F87
:1009E0008F4F9F4F9923A9F0F92F96E9BB27939535
:1009F000F695879577956795B795F111F8CFFAF445
:100A0000BB0F11F460FF1BC06F5F7F4F8F4F9F4F75
:100A100016C0882311F096E911C0772321F09EE8D3
:100A2000872F762F05C0662371F096E8862F70E039
:100A300060E02AF09A95660F771F881FDAF7880F13
:100A40009695879597F9089597F99F6780E870E0E4
:100A500060E008959FEF80EC089500240A94161634
:100A6000170618060906089500240A94121613069C
:100A7000140605060895092E0394000C11F488232A
:100A800052F0BB0F40F4BF2B11F460FF04C06F5F46
:100A90007F4F8F4F9F4F089557FD9058440F551F1C
:100AA00059F05F3F71F04795880F97FB991F61F0F0
:100AB0009F3F79F087950895121613061406551F67
:100AC000F2CF4695F1DF08C0161617061806991FD3
:100AD000F1CF86957105610508940895E894BB27C8
:100AE00066277727CB0197F908950E9488050C9413
:100AF0003B050E942D0538F00E94340520F0952317
:100B000011F00C9424050C942A0511240C946F0503
:100B10000E944C0570F3959FC1F3950F50E0551F4F
:100B2000629FF001729FBB27F00DB11D639FAA2742
:100B3000F00DB11DAA1F649F6627B00DA11D661F91
:100B4000829F2227B00DA11D621F739FB00DA11DB2
:100B5000621F839FA00D611D221F749F3327A00D6C
:100B6000611D231F849F600D211D822F762F6A2F08
:100B700011249F5750409AF0F1F088234AF0EE0F6D
:100B8000FF1FBB1F661F771F881F91505040A9F79A
:100B90009E3F510580F00C9424050C946F055F3F37
:100BA000E4F3983ED4F3869577956795B795F795D6
:100BB000E7959F5FC1F7FE2B880F911D969587954E
:100BC00097F90895A1E21A2EAA1BBB1BFD010DC0C7
:100BD000AA1FBB1FEE1FFF1FA217B307E407F507ED
:100BE00020F0A21BB30BE40BF50B661F771F881FC9
:100BF000991F1A9469F760957095809590959B015F
:100C0000AC01BD01CF010895EF920F931F93CF93D5
:100C1000DF93E80147FD02C034E001C034E1042E57
:100C2000000C550B57FF03C0519541955109E32E18
:100C3000022F242FAE010E944906CE01DF91CF91F1
:100C40001F910F91EF900895BB274A3031F49923FB
:100C500022F4BDE2909581959F4F0C943006BB27FE
:100C6000FB015527AA27880F991FAA1FA41710F068
:100C7000A41B83955051B9F7A05DAA3308F0A95D74
:100C8000A193009779F7B111B1931192CB010C9414
:100C90007B08A9E0B0E0EFE4F6E00C9491086A016B
:100CA000122FB02E2BE3201720F0FF24F394F00E28
:100CB00002C02CE3F22E0F2D27E0AE014F5F5F4FF5
:100CC0000E94A307BC014981842F8970813031F0D3
:100CD000E1FC06C0E0FE06C090E205C09DE203C054
:100CE0009BE201C090E05E2D507143FF3CC091112A
:100CF00002C083E001C084E0811718F4212F281B73
:100D000001C020E051110BC0F601822F30E2882390
:100D100019F031938150FBCFC20ED11C20E09923F2
:100D200029F0D6019C93F60131966F01C601039616
:100D3000E2FE0AC03EE4D6013C9341E411964C9396
:100D4000119712963C9306C03EE6F601308341E6C9
:100D500041833283FC01322F40E2332309F442C045
:100D600041933150FACF42FF44C0911102C083E059
:100D700001C084E0811718F4212F281B01C020E056
:100D800051110BC0F601822F30E2882319F0319304
:100D90008150FBCFC20ED11C20E0992329F0D6014F
:100DA0009C93F60131966F01C6010396E2FE0BC0DB
:100DB00039E4D6013C933EE411963C93119736E416
:100DC00012963C9307C039E6F60130833EE6318344
:100DD00036E63283FC01322F40E2332319F041938F
:100DE0003150FBCFFC01E20FF11D10828EEF9FEF1F
:100DF000A6C021E030E0911102C020E030E01616DC
:100E000017061CF4FB01319602C0E1E0F0E02E0F62
:100E10003F1FBB2021F0EB2DF0E0319602C0E0E057
:100E2000F0E02E0F3F1FE12FF0E02E173F071CF4DC
:100E3000121B212F01C020E08E2D887159F4F6017C
:100E4000822F30E2882319F031938150FBCFC20EFC
:100E5000D11C20E0992329F0D6019C93F60131960C
:100E60006F0151110BC0F601822F90E3882319F016
:100E700091938150FBCFC20ED11C20E00F2D060FA5
:100E80009A81342F307144FF03C0913309F401502B
:100E9000101624F4093018F008E001C001E0AB019D
:100EA00077FF02C040E050E0FB01E41BF50BA1E03E
:100EB000B0E0AC0FBD1FEA0FFB1F8EE2A82E4B0166
:100EC000801A91080B2D10E01195019511094F3FE3
:100ED000BFEF5B0721F4D601AC9211966D01641748
:100EE00075072CF08416950614F4818101C080E307
:100EF000415051093196D60111967D014017510795
:100F000024F0D6018C936701E2CF6417750739F49A
:100F1000963320F4953319F4311101C081E3F601C1
:100F20008083F701822F90E2882319F091938150FA
:100F3000FBCFF701E20FF11D108280E090E02996CF
:100F4000ECE00C94AD08283008F027E03327DA01F4
:100F5000990F311D87FD916000966105710539F487
:100F600032602E5F3D9330E32A95E1F708959F3F6D
:100F700030F080387105610509F03C5F3C5F3D93BE
:100F8000913008F08068911DDF93CF931F930F93EA
:100F9000FF92EF92192F987F9695E92F9695969547
:100FA000E90FFF27EE53FF4F99273327EE24FF2445
:100FB000A701E70105900894079428F4360FE71E6F
:100FC000F81E491F511D660F771F881F991F069431
:100FD000A1F70590079428F4E70EF81E491F561F45
:100FE000C11D770F881F991F661F0694A1F70590F2
:100FF000079428F4F80E491F561FC71FD11D880FEC
:10100000991F661F771F0694A1F70590079420F497
:10101000490F561FC71FD81F990F661F771F881FBC
:101020000694A9F784911095177041F0D695C7954D
:1010300057954795F794E7941A95C1F7E8E6F0E0DD
:1010400068941590159135916591959105907FE281
:101050007395E118F10A430B560BC90BD009C0F781
:10106000E10CF11E431F561FC91FD01D7EF47033C3
:1010700011F48A95E6CFE894015030F0080F0AF495
:101080000027021708F4202F2395022F7A3328F027
:1010900079E37D932A95E9F710C07D932A9589F627
:1010A000069497956795379517951794E118F10A67
:1010B000430B560BC90BD00998F023957E9173957D
:1010C0007A3308F070E37C932013B8F77E91706157
:1010D0007D9330F0839571E37D9370E32A95E1F77A
:1010E0001124EF90FF900F911F91CF91DF919927DD
:1010F00087FD90950895DC01FC01672F719177239E
:10110000E1F7329704C07C916D9370836291AE17C2
:10111000BF07C8F308952F923F924F925F926F924C
:101120007F928F929F92AF92BF92CF92DF92EF9277
:10113000FF920F931F93CF93DF93CDB7DEB7CA1BF8
:10114000DB0B0FB6F894DEBF0FBECDBF09942A8823
:10115000398848885F846E847D848C849B84AA84CB
:10116000B984C884DF80EE80FD800C811B81AA8158
:10117000B981CE0FD11D0FB6F894DEBF0FBECDBF23
:08118000ED010895F894FFCF82
:101188002020200020202020204300202020202074
:0811980025004A696A6F00009E
:00000001FF
