:100000000C9434000C9451000C9451000C94510049
:100010000C9451000C9451000C9451000C9451001C
:100020000C9451000C9451000C9451000C9451000C
:100030000C9451000C9451000C9451000C945100FC
:100040000C9451000C9451000C9451000C945100EC
:100050000C9451000C942E010C9451000C945100FE
:100060000C94B8010C94510011241FBECFEFD8E0BE
:10007000DEBFCDBF11E0A0E0B1E0EEE0F5E002C0F0
:1000800005900D92A430B107D9F721E0A4E0B1E0CA
:1000900001C01D92AE30B207E1F70E940C010C9432
:1000A00085020C9400008230B9F028F4882341F0D6
:1000B000813061F029C08630A9F08730E1F024C09A
:1000C000ECE7F0E08081807F80830895ECE7F0E04A
:1000D0008081816080830895ECE7F0E08081826018
:1000E00080830895ECE7F0E08081866080838081E2
:1000F000867F80830895ECE7F0E0808187608083CD
:100100008081877F80830895ECE7F0E08081807FA5
:1001100080830895ECE7F0E01082908190649083F2
:1001200090819F7D90830E945300EAE7F0E0108267
:1001300080818860808380818760808380818068FF
:1001400080838081806480830895F8948AB18C6173
:100150008AB98BB1837E8BB9809102010E948A009B
:10016000809101010E946F0260E470E080E00E94D3
:10017000030280ED97E00E946A02789408958BB1A3
:10018000837E8BB980910701882319F08BB184603D
:100190008BB980910501882319F08BB188608BB9E8
:1001A00080910601882319F08BB180618BB9089585
:1001B0008E319105C0F0893522E09207B0F444E613
:1001C000489F9001499F300D1124285B3B40ADE7CB
:1001D000B9E30E947602880F892F881F990B9195A9
:1001E000481B842F089584E6089580E008958D3299
:1001F00028F080EA9FE00E946A0204C080ED97E048
:100200000E946A022FEF89EF90E0215080409040D9
:10021000E1F700C0000008950E94A5000E94BF0001
:10022000809108018D3260F080910401811108C035
:10023000809108010E94F70081E080930401EECFD5
:10024000809108018D3250F780910401882331F3A9
:1002500080E00E94F70010920401E0CF1F920F92FD
:100260000FB60F9211242F933F934F935F936F9389
:100270007F938F939F93AF93BF93EF93FF9380915F
:100280000001813009F047C0809178009091790099
:1002900090930C0180930B0180910B0190910C01C4
:1002A000CC9740F481E080930701109205011092F1
:1002B00006012AC080910B0190910C01CC9778F037
:1002C00080910B0190910C01883C910540F41092B3
:1002D000070181E0809305011092060115C080910D
:1002E0000B0190910C01883C910570F080910B01FD
:1002F00090910C018835924038F4109207011092C9
:10030000050181E0809306011092000180910001B7
:100310000E94530017C080917800909179009093CB
:100320000A01809309018091090190910A010E94BC
:10033000D8008093080181E0809300018091000142
:100340000E945300EAE7F0E0808180648083FF919F
:10035000EF91BF91AF919F918F917F916F915F913D
:100360004F913F912F910F900FBE0F901F901895B6
:100370001F920F920FB60F9211248F939F9380912B
:10038000B9008C7F803889F028F4803651F08037AE
:1003900041F02FC0883A89F0883B39F1803949F51E
:1003A00004C085EC8093BC0027C08091BB00809383
:1003B0000D0185EC8093BC001FC080910D01813040
:1003C00039F480910B0190910C018093BB0009C01E
:1003D000823029F4809108018093BB0002C0109202
:1003E000BB0085EC8093BC0007C085EC8093BC000B
:1003F00003C085EC8093BC009F918F910F900FBE3E
:100400000F901F90189594B1926094B9109280004B
:1004100010928100813049F4E0E8F0E08081806C46
:10042000808380818063808308C0E0E8F0E0808181
:1004300080688083808180628083E0E8F0E0808152
:1004400082608083E1E8F0E08081886180836034AD
:100450007105E1F038F46130710561F068307105C3
:1004600079F026C0611581E07807B1F0611574401C
:10047000C9F01EC0E1E8F0E08081816080831DC08A
:10048000E1E8F0E080818260808317C0E1E8F0E07D
:1004900080818360808311C0E1E8F0E08081846026
:1004A00080830BC0E1E8F0E080818560808305C037
:1004B000E1E8F0E08081816080838FE39CE99093A4
:1004C00087008093860080ED97E090938900809369
:1004D0008800089590938900809388000895880F7C
:1004E0008093BA0085E48093BC000895A29FB00178
:1004F000B39FC001A39F700D811D1124911DB29F58
:0E050000700D811D1124911D0895F894FFCFF8
:04050E0001400100A7
:00000001FF
