S0150000536C6176655F6D6F746F7244432E73726563FD
S11300000C9434000C9446000C9446000C94460066
S11300100C9446000C9446000C9446000C94460044
S11300200C9446000C9446000C9446000C94460034
S11300300C9446000C9446000C9446000C94460024
S11300400C9446000C9446000C9446000C94460014
S11300500C9446000C9485000C9446000C944600C5
S11300600C9446000C94460011241FBECFEFD8E038
S1130070DEBFCDBF21E0A0E0B1E001C01D92A230FF
S1130080B207E1F70E9474000C9426010C9400005E
S1130090ECE7F0E01082808181608083808180645D
S11300A08083808180628083EAE7F0E0108280812F
S11300B0876080838081886080838081806880837A
S11300C08081806480830895F8948AB184608AB9B9
S11300D08BB184608BB90E94480068E070E080E0D6
S11300E00E94B700789408950E946400EAE7F0E063
S11300F08081806480832FEF80E792E021508040EC
S11301009040E1F700C00000F1CF1F920F920FB6AC
S11301100F9211242F933F934F935F936F937F9389
S11301208F939F93AF93BF93EF93FF938091790045
S113013090E09093010180930001809100019091DF
S113014001010596880F991F0E941601FF91EF91F6
S1130150BF91AF919F918F917F916F915F914F91DB
S11301603F912F910F900FBE0F901F90189594B14F
S1130170926094B91092800010928100813031F421
S1130180E0E8F0E08081806C808305C0E0E8F0E086
S1130190808180688083E0E8F0E0808182608083F1
S11301A0E1E8F0E080818861808360347105E1F0EA
S11301B038F46130710561F06830710579F026C05A
S11301C0611581E07807B1F061157440C9F01EC073
S11301D0E1E8F0E08081816080831DC0E1E8F0E027
S11301E080818260808317C0E1E8F0E080818360D1
S11301F0808311C0E1E8F0E08081846080830BC0DB
S1130200E1E8F0E080818560808305C0E1E8F0E00A
S11302108081816080838FE99FE090938700809341
S1130220860010928900109288000895209186001B
S1130230309187002817390720F480918600909127
S1130240870090938900809388000895F894FFCFE5
S9030000FC
